S01A000064635F6D6F746F725F726F61746174696F6E2E7372656383
S11300000C9434000C9446000C9446000C94460066
S11300100C9446000C9446000C9446000C94460044
S11300200C9446000C9446000C9446000C94460034
S11300300C9446000C9446000C9446000C94460024
S11300400C9446000C9446000C9446000C94460014
S11300500C9446000C9446000C9446000C94460004
S11300600C9446000C94460011241FBECFEFD8E038
S1130070DEBFCDBF21E0A0E0B1E001C01D92A230FF
S1130080B207E1F70E9448000C947F000C94000032
S113009084B1836084B98AB1837F8AB98BB1846067
S11300A08BB94B9B08C09091000181E08927809314
S11300B000014B99FECF4A9908C09091010181E05B
S11300C08927809301014A9BFECF809101018823F7
S11300D091F080910001811107C085B1816085B9DB
S11300E085B18D7F85B9DDCF85B18E7F85B985B129
S11300F0826085B9D6CF85B18C7F85B9D2CFF8948B
S1050100FFCF2B
S9030000FC
