S00D0000626C696E6B2E7372656307
S11300000C9434000C943E000C943E000C943E007E
S11300100C943E000C943E000C943E000C943E0064
S11300200C943E000C943E000C943E000C943E0054
S11300300C943E000C943E000C943E000C943E0044
S11300400C943E000C943E000C943E000C943E0034
S11300500C943E000C943E000C943E000C943E0024
S11300600C943E000C943E0011241FBECFEFD8E048
S1130070DEBFCDBF0E9440000C9459000C940000D8
S11300808FEF8AB985E18BB92FEF83ED90E321508F
S113009080409040E1F700C000008AE28BB92FEF66
S11300A083ED90E3215080409040E1F700C00000D0
S10900B0E9CFF894FFCF34
S9030000FC
