S00F000064636D6F746F722E737265631D
S11300000C9434000C943E000C943E000C943E007E
S11300100C943E000C943E000C943E000C943E0064
S11300200C943E000C943E000C943E000C943E0054
S11300300C943E000C943E000C943E000C943E0044
S11300400C943E000C943E000C943E000C943E0034
S11300500C943E000C943E000C943E000C943E0024
S11300600C943E000C943E0011241FBECFEFD8E048
S1130070DEBFCDBF0E9440000C9462000C940000CF
S11300808AB186608AB98BB182608BB98BB18B7F60
S11300908BB92FEF83ED90E3215080409040E1F73E
S11300A000C000008BB184608BB98BB18D7F8BB99C
S11300B02FEF83ED90E3215080409040E1F700C0A2
S10B00C00000E1CFF894FFCF2A
S9030000FC
