S0150000747261666669635F6C696768742E73726563B9
S11300000C9434000C943E000C943E000C943E007E
S11300100C943E000C943E000C943E000C943E0064
S11300200C943E000C943E000C943E000C943E0054
S11300300C943E000C943E000C943E000C943E0044
S11300400C943E000C943E000C943E000C943E0034
S11300500C943E000C943E000C943E000C943E0024
S11300600C943E000C943E0011241FBECFEFD8E048
S1130070DEBFCDBF0E9470000C947A000C94000087
S11300808BB1837F8BB98BB182608BB92FEF8BE7F8
S113009092E9215080409040E1F700C000000895AB
S11300A08BB1857F8BB98BB184608BB92FEF8BE7D4
S11300B092E9215080409040E1F700C0000008958B
S11300C08BB1897F8BB98BB188608BB92FEF83EDAE
S11300D090E3215080409040E1F700C00000089573
S11300E08AB18E608AB90E9440000E9450000E942A
S10B00F06000F9CFF894FFCF82
S9030000FC
