S01800004C45445F424C494E4B5F50554C4C55502E7372656327
S11300000C9434000C943E000C943E000C943E007E
S11300100C943E000C943E000C943E000C943E0064
S11300200C943E000C943E000C943E000C943E0054
S11300300C943E000C943E000C943E000C943E0044
S11300400C943E000C943E000C943E000C943E0034
S11300500C943E000C943E000C943E000C943E0024
S11300600C943E000C943E0011241FBECFEFD8E048
S1130070DEBFCDBF0E9440000C9452000C940000DF
S11300808AB18B7F8AB98BB184608BB987B1846064
S113009087B94A99FECF98B184E0892788B94A9BE9
S10B00A0FECFF7CFF894FFCF67
S9030000FC
